{
  "contractName": "CourseSelectionSystem",
  "abi": [
    {
      "constant": true,
      "inputs": [],
      "name": "courseCount",
      "outputs": [
        {
          "name": "",
          "type": "uint256"
        }
      ],
      "payable": false,
      "stateMutability": "view",
      "type": "function"
    },
    {
      "constant": true,
      "inputs": [
        {
          "name": "",
          "type": "uint256"
        }
      ],
      "name": "recordInfo",
      "outputs": [
        {
          "name": "courseId",
          "type": "uint256"
        },
        {
          "name": "courseName",
          "type": "string"
        },
        {
          "name": "Nstudent",
          "type": "uint256"
        },
        {
          "name": "startTime",
          "type": "uint256"
        },
        {
          "name": "duration",
          "type": "uint256"
        },
        {
          "name": "isFinshed",
          "type": "bool"
        }
      ],
      "payable": false,
      "stateMutability": "view",
      "type": "function"
    },
    {
      "constant": true,
      "inputs": [],
      "name": "admin",
      "outputs": [
        {
          "name": "",
          "type": "address"
        }
      ],
      "payable": false,
      "stateMutability": "view",
      "type": "function"
    },
    {
      "inputs": [],
      "payable": false,
      "stateMutability": "nonpayable",
      "type": "constructor"
    },
    {
      "constant": false,
      "inputs": [
        {
          "name": "_name",
          "type": "string"
        },
        {
          "name": "_Nstudent",
          "type": "uint256"
        },
        {
          "name": "_duration",
          "type": "uint256"
        }
      ],
      "name": "addCourse",
      "outputs": [],
      "payable": false,
      "stateMutability": "nonpayable",
      "type": "function"
    },
    {
      "constant": true,
      "inputs": [
        {
          "name": "studentAddr",
          "type": "address"
        },
        {
          "name": "_courseId",
          "type": "uint256"
        }
      ],
      "name": "isInList",
      "outputs": [
        {
          "name": "",
          "type": "bool"
        }
      ],
      "payable": false,
      "stateMutability": "view",
      "type": "function"
    },
    {
      "constant": false,
      "inputs": [
        {
          "name": "_courseId",
          "type": "uint256"
        }
      ],
      "name": "bid_course",
      "outputs": [
        {
          "name": "",
          "type": "bool"
        }
      ],
      "payable": true,
      "stateMutability": "payable",
      "type": "function"
    },
    {
      "constant": false,
      "inputs": [
        {
          "name": "_courseId",
          "type": "uint256"
        }
      ],
      "name": "endSelection",
      "outputs": [],
      "payable": true,
      "stateMutability": "payable",
      "type": "function"
    }
  ],
  "bytecode": "0x60806040523480156200001157600080fd5b50336000806101000a81548173ffffffffffffffffffffffffffffffffffffffff021916908373ffffffffffffffffffffffffffffffffffffffff1602179055506000600181905550620000ad6040805190810160405280600481526020017f414c4941000000000000000000000000000000000000000000000000000000008152506005600a62000106640100000000026401000000009004565b620001006040805190810160405280600481526020017f44424d53000000000000000000000000000000000000000000000000000000008152506002600a62000106640100000000026401000000009004565b620003ff565b6000809054906101000a900473ffffffffffffffffffffffffffffffffffffffff1673ffffffffffffffffffffffffffffffffffffffff163373ffffffffffffffffffffffffffffffffffffffff16141562000312576200016662000317565b60c060405190810160405280600154815260200185815260200184815260200142815260200183815260200160001515815250905080600260006001548152602001908152602001600020600082015181600001556020820151816001019080519060200190620001d992919062000350565b5060408201518160020155606082015181600301556080820151816004015560a08201518160050160006101000a81548160ff02191690831515021790555090505060008090505b83811015620002ff5760408051908101604052806000809054906101000a900473ffffffffffffffffffffffffffffffffffffffff1673ffffffffffffffffffffffffffffffffffffffff1681526020016000815250600360006001548152602001908152602001600020600083815260200190815260200160002060008201518160000160006101000a81548173ffffffffffffffffffffffffffffffffffffffff021916908373ffffffffffffffffffffffffffffffffffffffff16021790555060208201518160010155905050808060010191505062000221565b5060018060008282540192505081905550505b505050565b60c06040519081016040528060008152602001606081526020016000815260200160008152602001600081526020016000151581525090565b828054600181600116156101000203166002900490600052602060002090601f016020900481019282601f106200039357805160ff1916838001178555620003c4565b82800160010185558215620003c4579182015b82811115620003c3578251825591602001919060010190620003a6565b5b509050620003d39190620003d7565b5090565b620003fc91905b80821115620003f8576000816000905550600101620003de565b5090565b90565b611083806200040f6000396000f3fe60806040526004361061008d576000357c01000000000000000000000000000000000000000000000000000000009004806371cdd2771161006b57806371cdd277146101df578063b0ee771014610252578063baab93cc1461032d578063f851a4401461035b5761008d565b80635f1ee60b14610092578063633a93a91461016e57806366055159146101b4575b600080fd5b34801561009e57600080fd5b5061016c600480360360608110156100b557600080fd5b81019080803590602001906401000000008111156100d257600080fd5b8201836020820111156100e457600080fd5b8035906020019184600183028401116401000000008311171561010657600080fd5b91908080601f016020809104026020016040519081016040528093929190818152602001838380828437600081840152601f19601f82011690508083019250505050505050919291929080359060200190929190803590602001909291905050506103b2565b005b61019a6004803603602081101561018457600080fd5b81019080803590602001909291905050506105bc565b604051808215151515815260200191505060405180910390f35b3480156101c057600080fd5b506101c96108c8565b6040518082815260200191505060405180910390f35b3480156101eb57600080fd5b506102386004803603604081101561020257600080fd5b81019080803573ffffffffffffffffffffffffffffffffffffffff169060200190929190803590602001909291905050506108ce565b604051808215151515815260200191505060405180910390f35b34801561025e57600080fd5b5061028b6004803603602081101561027557600080fd5b8101908080359060200190929190505050610992565b604051808781526020018060200186815260200185815260200184815260200183151515158152602001828103825287818151815260200191508051906020019080838360005b838110156102ed5780820151818401526020810190506102d2565b50505050905090810190601f16801561031a5780820380516001836020036101000a031916815260200191505b5097505050505050505060405180910390f35b6103596004803603602081101561034357600080fd5b8101908080359060200190929190505050610a73565b005b34801561036757600080fd5b50610370610bd2565b604051808273ffffffffffffffffffffffffffffffffffffffff1673ffffffffffffffffffffffffffffffffffffffff16815260200191505060405180910390f35b6000809054906101000a900473ffffffffffffffffffffffffffffffffffffffff1673ffffffffffffffffffffffffffffffffffffffff163373ffffffffffffffffffffffffffffffffffffffff1614156105b75761040f610e90565b60c060405190810160405280600154815260200185815260200184815260200142815260200183815260200160001515815250905080600260006001548152602001908152602001600020600082015181600001556020820151816001019080519060200190610480929190610ec9565b5060408201518160020155606082015181600301556080820151816004015560a08201518160050160006101000a81548160ff02191690831515021790555090505060008090505b838110156105a45760408051908101604052806000809054906101000a900473ffffffffffffffffffffffffffffffffffffffff1673ffffffffffffffffffffffffffffffffffffffff1681526020016000815250600360006001548152602001908152602001600020600083815260200190815260200160002060008201518160000160006101000a81548173ffffffffffffffffffffffffffffffffffffffff021916908373ffffffffffffffffffffffffffffffffffffffff1602179055506020820151816001015590505080806001019150506104c8565b5060018060008282540192505081905550505b505050565b60006105c833836108ce565b151515610620576040517f08c379a0000000000000000000000000000000000000000000000000000000008152600401808060200182810382526023815260200180610f9f6023913960400191505060405180910390fd5b60003411151561067b576040517f08c379a0000000000000000000000000000000000000000000000000000000008152600401808060200182810382526025815260200180610fe76025913960400191505060405180910390fd5b603c6002600084815260200190815260200160002060040154026002600084815260200190815260200160002060030154014211151515610724576040517f08c379a000000000000000000000000000000000000000000000000000000000815260040180806020018281038252600b8152602001807f54696d652069732075702e00000000000000000000000000000000000000000081525060200191505060405180910390fd5b6002600083815260200190815260200160002060050160009054906101000a900460ff161515156107a0576040517f08c379a000000000000000000000000000000000000000000000000000000000815260040180806020018281038252602a81526020018061100c602a913960400191505060405180910390fd5b60036000838152602001908152602001600020600060016002600086815260200190815260200160002060020154038152602001908152602001600020600101543411156108be57336003600084815260200190815260200160002060006001600260008781526020019081526020016000206002015403815260200190815260200160002060000160006101000a81548173ffffffffffffffffffffffffffffffffffffffff021916908373ffffffffffffffffffffffffffffffffffffffff1602179055503460036000848152602001908152602001600020600060016002600087815260200190815260200160002060020154038152602001908152602001600020600101819055506108b582610bf7565b600190506108c3565b600090505b919050565b60015481565b600080600090505b6002600084815260200190815260200160002060020154811015610986578373ffffffffffffffffffffffffffffffffffffffff1660036000858152602001908152602001600020600083815260200190815260200160002060000160009054906101000a900473ffffffffffffffffffffffffffffffffffffffff1673ffffffffffffffffffffffffffffffffffffffff16141561097957600191505061098c565b80806001019150506108d6565b50600090505b92915050565b6002602052806000526040600020600091509050806000015490806001018054600181600116156101000203166002900480601f016020809104026020016040519081016040528092919081815260200182805460018160011615610100020316600290048015610a445780601f10610a1957610100808354040283529160200191610a44565b820191906000526020600020905b815481529060010190602001808311610a2757829003601f168201915b5050505050908060020154908060030154908060040154908060050160009054906101000a900460ff16905086565b6000809054906101000a900473ffffffffffffffffffffffffffffffffffffffff1673ffffffffffffffffffffffffffffffffffffffff163373ffffffffffffffffffffffffffffffffffffffff161415610bcf576000600260008381526020019081526020016000209050603c81600401540281600301540142111515610b46576040517f08c379a0000000000000000000000000000000000000000000000000000000008152600401808060200182810382526025815260200180610fc26025913960400191505060405180910390fd5b8060050160009054906101000a900460ff16151515610bb0576040517f08c379a00000000000000000000000000000000000000000000000000000000081526004018080602001828103825260228152602001806110366022913960400191505060405180910390fd5b60018160050160006101000a81548160ff021916908315150217905550505b50565b6000809054906101000a900473ffffffffffffffffffffffffffffffffffffffff1681565b60008090505b6002600083815260200190815260200160002060020154811015610e8c5760008090505b6001600260008581526020019081526020016000206002015403811015610e7e5760036000848152602001908152602001600020600060018301815260200190815260200160002060010154600360008581526020019081526020016000206000838152602001908152602001600020600101541015610e7157610ca3610f49565b6003600085815260200190815260200160002060008381526020019081526020016000206040805190810160405290816000820160009054906101000a900473ffffffffffffffffffffffffffffffffffffffff1673ffffffffffffffffffffffffffffffffffffffff1673ffffffffffffffffffffffffffffffffffffffff16815260200160018201548152505090506003600085815260200190815260200160002060006001840181526020019081526020016000206003600086815260200190815260200160002060008481526020019081526020016000206000820160009054906101000a900473ffffffffffffffffffffffffffffffffffffffff168160000160006101000a81548173ffffffffffffffffffffffffffffffffffffffff021916908373ffffffffffffffffffffffffffffffffffffffff160217905550600182015481600101559050508060036000868152602001908152602001600020600060018501815260200190815260200160002060008201518160000160006101000a81548173ffffffffffffffffffffffffffffffffffffffff021916908373ffffffffffffffffffffffffffffffffffffffff16021790555060208201518160010155905050505b8080600101915050610c21565b508080600101915050610bfd565b5050565b60c06040519081016040528060008152602001606081526020016000815260200160008152602001600081526020016000151581525090565b828054600181600116156101000203166002900490600052602060002090601f016020900481019282601f10610f0a57805160ff1916838001178555610f38565b82800160010185558215610f38579182015b82811115610f37578251825591602001919060010190610f1c565b5b509050610f459190610f79565b5090565b6040805190810160405280600073ffffffffffffffffffffffffffffffffffffffff168152602001600081525090565b610f9b91905b80821115610f97576000816000905550600101610f7f565b5090565b9056fe596f7527766520616c72656164792062696420666f72207468697320636f757273652e43616e277420636c6f7365207468652073656c656374696f6e20696e20616476616e63652e596f75206d757374206269642061206e756d6265722067726561746572207468616e20302e5468652073656c656374696f6e2069732066696e697368656420666f72207468697320636f757273652e5468652073656c656374696f6e20697320616c72656164792066696e69736865642ea165627a7a72305820fefd6123c0eea294e888d68a6ae52748dd6045ad9ba684baa334f4e8ecc020600029",
  "source": "// SPDX-License-Identifier: MIT\r\npragma solidity>=0.5.2;\r\n\r\ncontract CourseSelectionSystem{\r\n    address public admin;\r\n    uint public courseCount;\r\n    mapping(uint=>CourseInfo) public recordInfo;//store information for course\r\n    mapping(uint=>mapping(uint=>rankListElement)) recordBid;//store information for bid\r\n\r\n    struct rankListElement {//to store the amount of token each student bid\r\n        address addr;\r\n        uint256 amount;\r\n    }\r\n\r\n    struct CourseInfo{//basic info of one course\r\n        uint courseId;\r\n        string courseName;\r\n        uint Nstudent;\r\n        uint256 startTime;\r\n        uint256 duration;//unit:minute\r\n        bool isFinshed; \r\n    }\r\n\r\n    //initialization of course name, limit of duration(min), limit of #student in this course\r\n    constructor() public {\r\n        admin=msg.sender;\r\n        courseCount = 0;\r\n        addCourse(\"ALIA\",5,10);\r\n        addCourse(\"DBMS\",2,10);\r\n        // addCourse(\"OT4\",20,10);\r\n    }\r\n\r\n    modifier isAdmin(){//check if the action is legal\r\n        if (msg.sender == admin) _;\r\n    }\r\n\r\n    function addCourse(string memory _name, uint _Nstudent, uint _duration) public isAdmin {\r\n        CourseInfo memory course = CourseInfo(\r\n            courseCount,\r\n            _name, \r\n            _Nstudent, \r\n            block.timestamp, \r\n            _duration, \r\n            false\r\n        );\r\n        recordInfo[courseCount] = course;\r\n\r\n        for(uint i=0;i<_Nstudent;i++){\r\n            recordBid[courseCount][i] = rankListElement(admin,0);\r\n        }\r\n\r\n        courseCount+=1;\r\n\r\n    }\r\n\r\n    function sortRankingList(uint _courseId) private {//used for sorting bid information\r\n        for(uint i=0; i<recordInfo[_courseId].Nstudent;i++){\r\n            for(uint j=0;j<recordInfo[_courseId].Nstudent-1;j++){\r\n                if (recordBid[_courseId][j].amount <recordBid[_courseId][j+1].amount){\r\n                    rankListElement memory temp = recordBid[_courseId][j];\r\n                    recordBid[_courseId][j] = recordBid[_courseId][j+1];\r\n                    recordBid[_courseId][j+1] = temp;\r\n                }\r\n            }\r\n        }\r\n    }\r\n\r\n    function isInList(address studentAddr, uint _courseId) public view returns(bool){//check if one student has already bid for this course\r\n        for(uint i=0; i<recordInfo[_courseId].Nstudent;i++){\r\n            if(recordBid[_courseId][i].addr==studentAddr){\r\n                return true;\r\n            }\r\n        }\r\n        return false;\r\n    }\r\n\r\n    // select course\r\n    function bid_course(uint _courseId) public payable returns(bool){//return if the transaction succeed\r\n        require(!isInList(msg.sender,_courseId),\"You've already bid for this course.\");\r\n        require(msg.value>0,\"You must bid a number greater than 0.\");\r\n        require(block.timestamp<=recordInfo[_courseId].startTime+recordInfo[_courseId].duration*60,\"Time is up.\");\r\n        require(!recordInfo[_courseId].isFinshed,\"The selection is finished for this course.\");\r\n        \r\n        if (msg.value > recordBid[_courseId][recordInfo[_courseId].Nstudent-1].amount){\r\n            recordBid[_courseId][recordInfo[_courseId].Nstudent-1].addr = msg.sender;\r\n            recordBid[_courseId][recordInfo[_courseId].Nstudent-1].amount = msg.value;\r\n            sortRankingList(_courseId);\r\n            return true;\r\n        }\r\n        return false;\r\n    }\r\n    \r\n    function endSelection(uint _courseId) public payable isAdmin {\r\n        CourseInfo storage courseinfo = recordInfo[_courseId];\r\n        require(block.timestamp>courseinfo.startTime+courseinfo.duration*60,\"Can't close the selection in advance.\");\r\n        require(!courseinfo.isFinshed,\"The selection is already finished.\");\r\n        courseinfo.isFinshed=true;\r\n    }\r\n\r\n}\r\n",
  "sourcePath": "D:\\data\\cours\\Insa\\5IF\\blockchain\\blockchain_project\\contracts\\course.sol",
  "compiler": {
    "name": "solc",
    "version": "0.5.2+commit.1df8f40c.Emscripten.clang"
  },
  "schemaVersion": "3.4.11",
  "updatedAt": "2023-01-28T16:44:29.814Z",
  "networkType": "ethereum",
  "devdoc": {
    "methods": {}
  },
  "userdoc": {
    "methods": {}
  }
}